{
  "_format": "hh-sol-artifact-1",
  "contractName": "AriaKeyX",
  "sourceName": "contracts/AriaKeyX.sol",
  "abi": [
    {
      "inputs": [
        {
          "internalType": "address",
          "name": "ownerAddress",
          "type": "address"
        }
      ],
      "stateMutability": "nonpayable",
      "type": "constructor"
    },
    {
      "inputs": [
        {
          "internalType": "address",
          "name": "spender",
          "type": "address"
        },
        {
          "internalType": "uint256",
          "name": "allowance",
          "type": "uint256"
        },
        {
          "internalType": "uint256",
          "name": "needed",
          "type": "uint256"
        }
      ],
      "name": "ERC20InsufficientAllowance",
      "type": "error"
    },
    {
      "inputs": [
        {
          "internalType": "address",
          "name": "sender",
          "type": "address"
        },
        {
          "internalType": "uint256",
          "name": "balance",
          "type": "uint256"
        },
        {
          "internalType": "uint256",
          "name": "needed",
          "type": "uint256"
        }
      ],
      "name": "ERC20InsufficientBalance",
      "type": "error"
    },
    {
      "inputs": [
        {
          "internalType": "address",
          "name": "approver",
          "type": "address"
        }
      ],
      "name": "ERC20InvalidApprover",
      "type": "error"
    },
    {
      "inputs": [
        {
          "internalType": "address",
          "name": "receiver",
          "type": "address"
        }
      ],
      "name": "ERC20InvalidReceiver",
      "type": "error"
    },
    {
      "inputs": [
        {
          "internalType": "address",
          "name": "sender",
          "type": "address"
        }
      ],
      "name": "ERC20InvalidSender",
      "type": "error"
    },
    {
      "inputs": [
        {
          "internalType": "address",
          "name": "spender",
          "type": "address"
        }
      ],
      "name": "ERC20InvalidSpender",
      "type": "error"
    },
    {
      "inputs": [],
      "name": "EnforcedPause",
      "type": "error"
    },
    {
      "inputs": [],
      "name": "ExpectedPause",
      "type": "error"
    },
    {
      "inputs": [
        {
          "internalType": "address",
          "name": "owner",
          "type": "address"
        }
      ],
      "name": "OwnableInvalidOwner",
      "type": "error"
    },
    {
      "inputs": [
        {
          "internalType": "address",
          "name": "account",
          "type": "address"
        }
      ],
      "name": "OwnableUnauthorizedAccount",
      "type": "error"
    },
    {
      "anonymous": false,
      "inputs": [
        {
          "indexed": true,
          "internalType": "address",
          "name": "owner",
          "type": "address"
        },
        {
          "indexed": true,
          "internalType": "address",
          "name": "spender",
          "type": "address"
        },
        {
          "indexed": false,
          "internalType": "uint256",
          "name": "value",
          "type": "uint256"
        }
      ],
      "name": "Approval",
      "type": "event"
    },
    {
      "anonymous": false,
      "inputs": [
        {
          "indexed": true,
          "internalType": "address",
          "name": "previousOwner",
          "type": "address"
        },
        {
          "indexed": true,
          "internalType": "address",
          "name": "newOwner",
          "type": "address"
        }
      ],
      "name": "OwnershipTransferred",
      "type": "event"
    },
    {
      "anonymous": false,
      "inputs": [
        {
          "indexed": false,
          "internalType": "address",
          "name": "account",
          "type": "address"
        }
      ],
      "name": "Paused",
      "type": "event"
    },
    {
      "anonymous": false,
      "inputs": [
        {
          "indexed": true,
          "internalType": "address",
          "name": "from",
          "type": "address"
        },
        {
          "indexed": true,
          "internalType": "address",
          "name": "to",
          "type": "address"
        },
        {
          "indexed": false,
          "internalType": "uint256",
          "name": "value",
          "type": "uint256"
        }
      ],
      "name": "Transfer",
      "type": "event"
    },
    {
      "anonymous": false,
      "inputs": [
        {
          "indexed": false,
          "internalType": "address",
          "name": "account",
          "type": "address"
        }
      ],
      "name": "Unpaused",
      "type": "event"
    },
    {
      "inputs": [],
      "name": "INITIAL_SUPPLY",
      "outputs": [
        {
          "internalType": "uint256",
          "name": "",
          "type": "uint256"
        }
      ],
      "stateMutability": "view",
      "type": "function"
    },
    {
      "inputs": [
        {
          "internalType": "address",
          "name": "owner",
          "type": "address"
        },
        {
          "internalType": "address",
          "name": "spender",
          "type": "address"
        }
      ],
      "name": "allowance",
      "outputs": [
        {
          "internalType": "uint256",
          "name": "",
          "type": "uint256"
        }
      ],
      "stateMutability": "view",
      "type": "function"
    },
    {
      "inputs": [
        {
          "internalType": "address",
          "name": "spender",
          "type": "address"
        },
        {
          "internalType": "uint256",
          "name": "value",
          "type": "uint256"
        }
      ],
      "name": "approve",
      "outputs": [
        {
          "internalType": "bool",
          "name": "",
          "type": "bool"
        }
      ],
      "stateMutability": "nonpayable",
      "type": "function"
    },
    {
      "inputs": [
        {
          "internalType": "address",
          "name": "account",
          "type": "address"
        }
      ],
      "name": "balanceOf",
      "outputs": [
        {
          "internalType": "uint256",
          "name": "",
          "type": "uint256"
        }
      ],
      "stateMutability": "view",
      "type": "function"
    },
    {
      "inputs": [],
      "name": "decimals",
      "outputs": [
        {
          "internalType": "uint8",
          "name": "",
          "type": "uint8"
        }
      ],
      "stateMutability": "view",
      "type": "function"
    },
    {
      "inputs": [
        {
          "internalType": "address",
          "name": "to",
          "type": "address"
        },
        {
          "internalType": "uint256",
          "name": "amount",
          "type": "uint256"
        }
      ],
      "name": "mint",
      "outputs": [],
      "stateMutability": "nonpayable",
      "type": "function"
    },
    {
      "inputs": [],
      "name": "name",
      "outputs": [
        {
          "internalType": "string",
          "name": "",
          "type": "string"
        }
      ],
      "stateMutability": "view",
      "type": "function"
    },
    {
      "inputs": [],
      "name": "owner",
      "outputs": [
        {
          "internalType": "address",
          "name": "",
          "type": "address"
        }
      ],
      "stateMutability": "view",
      "type": "function"
    },
    {
      "inputs": [],
      "name": "pause",
      "outputs": [],
      "stateMutability": "nonpayable",
      "type": "function"
    },
    {
      "inputs": [],
      "name": "paused",
      "outputs": [
        {
          "internalType": "bool",
          "name": "",
          "type": "bool"
        }
      ],
      "stateMutability": "view",
      "type": "function"
    },
    {
      "inputs": [],
      "name": "renounceOwnership",
      "outputs": [],
      "stateMutability": "nonpayable",
      "type": "function"
    },
    {
      "inputs": [],
      "name": "symbol",
      "outputs": [
        {
          "internalType": "string",
          "name": "",
          "type": "string"
        }
      ],
      "stateMutability": "view",
      "type": "function"
    },
    {
      "inputs": [],
      "name": "totalSupply",
      "outputs": [
        {
          "internalType": "uint256",
          "name": "",
          "type": "uint256"
        }
      ],
      "stateMutability": "view",
      "type": "function"
    },
    {
      "inputs": [
        {
          "internalType": "address",
          "name": "to",
          "type": "address"
        },
        {
          "internalType": "uint256",
          "name": "value",
          "type": "uint256"
        }
      ],
      "name": "transfer",
      "outputs": [
        {
          "internalType": "bool",
          "name": "",
          "type": "bool"
        }
      ],
      "stateMutability": "nonpayable",
      "type": "function"
    },
    {
      "inputs": [
        {
          "internalType": "address",
          "name": "from",
          "type": "address"
        },
        {
          "internalType": "address",
          "name": "to",
          "type": "address"
        },
        {
          "internalType": "uint256",
          "name": "value",
          "type": "uint256"
        }
      ],
      "name": "transferFrom",
      "outputs": [
        {
          "internalType": "bool",
          "name": "",
          "type": "bool"
        }
      ],
      "stateMutability": "nonpayable",
      "type": "function"
    },
    {
      "inputs": [
        {
          "internalType": "address",
          "name": "newOwner",
          "type": "address"
        }
      ],
      "name": "transferOwnership",
      "outputs": [],
      "stateMutability": "nonpayable",
      "type": "function"
    },
    {
      "inputs": [],
      "name": "unpause",
      "outputs": [],
      "stateMutability": "nonpayable",
      "type": "function"
    }
  ],
  "bytecode": "0x60806040523480156200001157600080fd5b5060405162001e6138038062001e618339818101604052810190620000379190620005eb565b806040518060400160405280600981526020017f41524941204b45595800000000000000000000000000000000000000000000008152506040518060400160405280600481526020017f4b455958000000000000000000000000000000000000000000000000000000008152508160039081620000b5919062000897565b508060049081620000c7919062000897565b505050600073ffffffffffffffffffffffffffffffffffffffff168173ffffffffffffffffffffffffffffffffffffffff16036200013f5760006040517f1e4fbdf70000000000000000000000000000000000000000000000000000000081526004016200013691906200098f565b60405180910390fd5b62000150816200017560201b60201c565b506200016e816a01221bd94bf4e9644000006200023b60201b60201c565b5062000a81565b6000600560009054906101000a900473ffffffffffffffffffffffffffffffffffffffff16905081600560006101000a81548173ffffffffffffffffffffffffffffffffffffffff021916908373ffffffffffffffffffffffffffffffffffffffff1602179055508173ffffffffffffffffffffffffffffffffffffffff168173ffffffffffffffffffffffffffffffffffffffff167f8be0079c531659141344cd1fd0a4f28419497f9722a3daafe3b4186f6b6457e060405160405180910390a35050565b600073ffffffffffffffffffffffffffffffffffffffff168273ffffffffffffffffffffffffffffffffffffffff1603620002b05760006040517fec442f05000000000000000000000000000000000000000000000000000000008152600401620002a791906200098f565b60405180910390fd5b620002c460008383620002c860201b60201c565b5050565b620002d8620002f060201b60201c565b620002eb8383836200033a60201b60201c565b505050565b620003006200056a60201b60201c565b1562000338576040517fd93c066500000000000000000000000000000000000000000000000000000000815260040160405180910390fd5b565b600073ffffffffffffffffffffffffffffffffffffffff168373ffffffffffffffffffffffffffffffffffffffff160362000390578060026000828254620003839190620009db565b9250508190555062000466565b60008060008573ffffffffffffffffffffffffffffffffffffffff1673ffffffffffffffffffffffffffffffffffffffff168152602001908152602001600020549050818110156200041f578381836040517fe450d38c000000000000000000000000000000000000000000000000000000008152600401620004169392919062000a27565b60405180910390fd5b8181036000808673ffffffffffffffffffffffffffffffffffffffff1673ffffffffffffffffffffffffffffffffffffffff16815260200190815260200160002081905550505b600073ffffffffffffffffffffffffffffffffffffffff168273ffffffffffffffffffffffffffffffffffffffff1603620004b15780600260008282540392505081905550620004fe565b806000808473ffffffffffffffffffffffffffffffffffffffff1673ffffffffffffffffffffffffffffffffffffffff168152602001908152602001600020600082825401925050819055505b8173ffffffffffffffffffffffffffffffffffffffff168373ffffffffffffffffffffffffffffffffffffffff167fddf252ad1be2c89b69c2b068fc378daa952ba7f163c4a11628f55a4df523b3ef836040516200055d919062000a64565b60405180910390a3505050565b6000600560149054906101000a900460ff16905090565b600080fd5b600073ffffffffffffffffffffffffffffffffffffffff82169050919050565b6000620005b38262000586565b9050919050565b620005c581620005a6565b8114620005d157600080fd5b50565b600081519050620005e581620005ba565b92915050565b60006020828403121562000604576200060362000581565b5b60006200061484828501620005d4565b91505092915050565b600081519050919050565b7f4e487b7100000000000000000000000000000000000000000000000000000000600052604160045260246000fd5b7f4e487b7100000000000000000000000000000000000000000000000000000000600052602260045260246000fd5b600060028204905060018216806200069f57607f821691505b602082108103620006b557620006b462000657565b5b50919050565b60008190508160005260206000209050919050565b60006020601f8301049050919050565b600082821b905092915050565b6000600883026200071f7fffffffffffffffffffffffffffffffffffffffffffffffffffffffffffffffff82620006e0565b6200072b8683620006e0565b95508019841693508086168417925050509392505050565b6000819050919050565b6000819050919050565b600062000778620007726200076c8462000743565b6200074d565b62000743565b9050919050565b6000819050919050565b620007948362000757565b620007ac620007a3826200077f565b848454620006ed565b825550505050565b600090565b620007c3620007b4565b620007d081848462000789565b505050565b5b81811015620007f857620007ec600082620007b9565b600181019050620007d6565b5050565b601f82111562000847576200081181620006bb565b6200081c84620006d0565b810160208510156200082c578190505b620008446200083b85620006d0565b830182620007d5565b50505b505050565b600082821c905092915050565b60006200086c600019846008026200084c565b1980831691505092915050565b600062000887838362000859565b9150826002028217905092915050565b620008a2826200061d565b67ffffffffffffffff811115620008be57620008bd62000628565b5b620008ca825462000686565b620008d7828285620007fc565b600060209050601f8311600181146200090f5760008415620008fa578287015190505b62000906858262000879565b86555062000976565b601f1984166200091f86620006bb565b60005b82811015620009495784890151825560018201915060208501945060208101905062000922565b8683101562000969578489015162000965601f89168262000859565b8355505b6001600288020188555050505b505050505050565b6200098981620005a6565b82525050565b6000602082019050620009a660008301846200097e565b92915050565b7f4e487b7100000000000000000000000000000000000000000000000000000000600052601160045260246000fd5b6000620009e88262000743565b9150620009f58362000743565b925082820190508082111562000a105762000a0f620009ac565b5b92915050565b62000a218162000743565b82525050565b600060608201905062000a3e60008301866200097e565b62000a4d602083018562000a16565b62000a5c604083018462000a16565b949350505050565b600060208201905062000a7b600083018462000a16565b92915050565b6113d08062000a916000396000f3fe608060405234801561001057600080fd5b506004361061010b5760003560e01c80635c975abb116100a25780638da5cb5b116100715780638da5cb5b1461027057806395d89b411461028e578063a9059cbb146102ac578063dd62ed3e146102dc578063f2fde38b1461030c5761010b565b80635c975abb1461020e57806370a082311461022c578063715018a61461025c5780638456cb59146102665761010b565b80632ff2e9dc116100de5780632ff2e9dc146101ac578063313ce567146101ca5780633f4ba83a146101e857806340c10f19146101f25761010b565b806306fdde0314610110578063095ea7b31461012e57806318160ddd1461015e57806323b872dd1461017c575b600080fd5b610118610328565b6040516101259190611024565b60405180910390f35b610148600480360381019061014391906110df565b6103ba565b604051610155919061113a565b60405180910390f35b6101666103dd565b6040516101739190611164565b60405180910390f35b6101966004803603810190610191919061117f565b6103e7565b6040516101a3919061113a565b60405180910390f35b6101b4610416565b6040516101c19190611164565b60405180910390f35b6101d2610425565b6040516101df91906111ee565b60405180910390f35b6101f061042e565b005b61020c600480360381019061020791906110df565b610440565b005b610216610456565b604051610223919061113a565b60405180910390f35b61024660048036038101906102419190611209565b61046d565b6040516102539190611164565b60405180910390f35b6102646104b5565b005b61026e6104c9565b005b6102786104db565b6040516102859190611245565b60405180910390f35b610296610505565b6040516102a39190611024565b60405180910390f35b6102c660048036038101906102c191906110df565b610597565b6040516102d3919061113a565b60405180910390f35b6102f660048036038101906102f19190611260565b6105ba565b6040516103039190611164565b60405180910390f35b61032660048036038101906103219190611209565b610641565b005b606060038054610337906112cf565b80601f0160208091040260200160405190810160405280929190818152602001828054610363906112cf565b80156103b05780601f10610385576101008083540402835291602001916103b0565b820191906000526020600020905b81548152906001019060200180831161039357829003601f168201915b5050505050905090565b6000806103c56106c7565b90506103d28185856106cf565b600191505092915050565b6000600254905090565b6000806103f26106c7565b90506103ff8582856106e1565b61040a858585610776565b60019150509392505050565b6a01221bd94bf4e96440000081565b60006012905090565b61043661086a565b61043e6108f1565b565b61044861086a565b6104528282610954565b5050565b6000600560149054906101000a900460ff16905090565b60008060008373ffffffffffffffffffffffffffffffffffffffff1673ffffffffffffffffffffffffffffffffffffffff168152602001908152602001600020549050919050565b6104bd61086a565b6104c760006109d6565b565b6104d161086a565b6104d9610a9c565b565b6000600560009054906101000a900473ffffffffffffffffffffffffffffffffffffffff16905090565b606060048054610514906112cf565b80601f0160208091040260200160405190810160405280929190818152602001828054610540906112cf565b801561058d5780601f106105625761010080835404028352916020019161058d565b820191906000526020600020905b81548152906001019060200180831161057057829003601f168201915b5050505050905090565b6000806105a26106c7565b90506105af818585610776565b600191505092915050565b6000600160008473ffffffffffffffffffffffffffffffffffffffff1673ffffffffffffffffffffffffffffffffffffffff16815260200190815260200160002060008373ffffffffffffffffffffffffffffffffffffffff1673ffffffffffffffffffffffffffffffffffffffff16815260200190815260200160002054905092915050565b61064961086a565b600073ffffffffffffffffffffffffffffffffffffffff168173ffffffffffffffffffffffffffffffffffffffff16036106bb5760006040517f1e4fbdf70000000000000000000000000000000000000000000000000000000081526004016106b29190611245565b60405180910390fd5b6106c4816109d6565b50565b600033905090565b6106dc8383836001610aff565b505050565b60006106ed84846105ba565b90507fffffffffffffffffffffffffffffffffffffffffffffffffffffffffffffffff8110156107705781811015610760578281836040517ffb8f41b200000000000000000000000000000000000000000000000000000000815260040161075793929190611300565b60405180910390fd5b61076f84848484036000610aff565b5b50505050565b600073ffffffffffffffffffffffffffffffffffffffff168373ffffffffffffffffffffffffffffffffffffffff16036107e85760006040517f96c6fd1e0000000000000000000000000000000000000000000000000000000081526004016107df9190611245565b60405180910390fd5b600073ffffffffffffffffffffffffffffffffffffffff168273ffffffffffffffffffffffffffffffffffffffff160361085a5760006040517fec442f050000000000000000000000000000000000000000000000000000000081526004016108519190611245565b60405180910390fd5b610865838383610cd6565b505050565b6108726106c7565b73ffffffffffffffffffffffffffffffffffffffff166108906104db565b73ffffffffffffffffffffffffffffffffffffffff16146108ef576108b36106c7565b6040517f118cdaa70000000000000000000000000000000000000000000000000000000081526004016108e69190611245565b60405180910390fd5b565b6108f9610cee565b6000600560146101000a81548160ff0219169083151502179055507f5db9ee0a495bf2e6ff9c91a7834c1ba4fdd244a5e8aa4e537bd38aeae4b073aa61093d6106c7565b60405161094a9190611245565b60405180910390a1565b600073ffffffffffffffffffffffffffffffffffffffff168273ffffffffffffffffffffffffffffffffffffffff16036109c65760006040517fec442f050000000000000000000000000000000000000000000000000000000081526004016109bd9190611245565b60405180910390fd5b6109d260008383610cd6565b5050565b6000600560009054906101000a900473ffffffffffffffffffffffffffffffffffffffff16905081600560006101000a81548173ffffffffffffffffffffffffffffffffffffffff021916908373ffffffffffffffffffffffffffffffffffffffff1602179055508173ffffffffffffffffffffffffffffffffffffffff168173ffffffffffffffffffffffffffffffffffffffff167f8be0079c531659141344cd1fd0a4f28419497f9722a3daafe3b4186f6b6457e060405160405180910390a35050565b610aa4610d2e565b6001600560146101000a81548160ff0219169083151502179055507f62e78cea01bee320cd4e420270b5ea74000d11b0c9f74754ebdbfc544b05a258610ae86106c7565b604051610af59190611245565b60405180910390a1565b600073ffffffffffffffffffffffffffffffffffffffff168473ffffffffffffffffffffffffffffffffffffffff1603610b715760006040517fe602df05000000000000000000000000000000000000000000000000000000008152600401610b689190611245565b60405180910390fd5b600073ffffffffffffffffffffffffffffffffffffffff168373ffffffffffffffffffffffffffffffffffffffff1603610be35760006040517f94280d62000000000000000000000000000000000000000000000000000000008152600401610bda9190611245565b60405180910390fd5b81600160008673ffffffffffffffffffffffffffffffffffffffff1673ffffffffffffffffffffffffffffffffffffffff16815260200190815260200160002060008573ffffffffffffffffffffffffffffffffffffffff1673ffffffffffffffffffffffffffffffffffffffff168152602001908152602001600020819055508015610cd0578273ffffffffffffffffffffffffffffffffffffffff168473ffffffffffffffffffffffffffffffffffffffff167f8c5be1e5ebec7d5bd14f71427d1e84f3dd0314c0f7b2291e5b200ac8c7c3b92584604051610cc79190611164565b60405180910390a35b50505050565b610cde610d2e565b610ce9838383610d6f565b505050565b610cf6610456565b610d2c576040517f8dfc202b00000000000000000000000000000000000000000000000000000000815260040160405180910390fd5b565b610d36610456565b15610d6d576040517fd93c066500000000000000000000000000000000000000000000000000000000815260040160405180910390fd5b565b600073ffffffffffffffffffffffffffffffffffffffff168373ffffffffffffffffffffffffffffffffffffffff1603610dc1578060026000828254610db59190611366565b92505081905550610e94565b60008060008573ffffffffffffffffffffffffffffffffffffffff1673ffffffffffffffffffffffffffffffffffffffff16815260200190815260200160002054905081811015610e4d578381836040517fe450d38c000000000000000000000000000000000000000000000000000000008152600401610e4493929190611300565b60405180910390fd5b8181036000808673ffffffffffffffffffffffffffffffffffffffff1673ffffffffffffffffffffffffffffffffffffffff16815260200190815260200160002081905550505b600073ffffffffffffffffffffffffffffffffffffffff168273ffffffffffffffffffffffffffffffffffffffff1603610edd5780600260008282540392505081905550610f2a565b806000808473ffffffffffffffffffffffffffffffffffffffff1673ffffffffffffffffffffffffffffffffffffffff168152602001908152602001600020600082825401925050819055505b8173ffffffffffffffffffffffffffffffffffffffff168373ffffffffffffffffffffffffffffffffffffffff167fddf252ad1be2c89b69c2b068fc378daa952ba7f163c4a11628f55a4df523b3ef83604051610f879190611164565b60405180910390a3505050565b600081519050919050565b600082825260208201905092915050565b60005b83811015610fce578082015181840152602081019050610fb3565b60008484015250505050565b6000601f19601f8301169050919050565b6000610ff682610f94565b6110008185610f9f565b9350611010818560208601610fb0565b61101981610fda565b840191505092915050565b6000602082019050818103600083015261103e8184610feb565b905092915050565b600080fd5b600073ffffffffffffffffffffffffffffffffffffffff82169050919050565b60006110768261104b565b9050919050565b6110868161106b565b811461109157600080fd5b50565b6000813590506110a38161107d565b92915050565b6000819050919050565b6110bc816110a9565b81146110c757600080fd5b50565b6000813590506110d9816110b3565b92915050565b600080604083850312156110f6576110f5611046565b5b600061110485828601611094565b9250506020611115858286016110ca565b9150509250929050565b60008115159050919050565b6111348161111f565b82525050565b600060208201905061114f600083018461112b565b92915050565b61115e816110a9565b82525050565b60006020820190506111796000830184611155565b92915050565b60008060006060848603121561119857611197611046565b5b60006111a686828701611094565b93505060206111b786828701611094565b92505060406111c8868287016110ca565b9150509250925092565b600060ff82169050919050565b6111e8816111d2565b82525050565b600060208201905061120360008301846111df565b92915050565b60006020828403121561121f5761121e611046565b5b600061122d84828501611094565b91505092915050565b61123f8161106b565b82525050565b600060208201905061125a6000830184611236565b92915050565b6000806040838503121561127757611276611046565b5b600061128585828601611094565b925050602061129685828601611094565b9150509250929050565b7f4e487b7100000000000000000000000000000000000000000000000000000000600052602260045260246000fd5b600060028204905060018216806112e757607f821691505b6020821081036112fa576112f96112a0565b5b50919050565b60006060820190506113156000830186611236565b6113226020830185611155565b61132f6040830184611155565b949350505050565b7f4e487b7100000000000000000000000000000000000000000000000000000000600052601160045260246000fd5b6000611371826110a9565b915061137c836110a9565b925082820190508082111561139457611393611337565b5b9291505056fea2646970667358221220684d4e2c7cc0fbe80ca1a13ff477e879ba346d756f19130d70414c7e898fecdb64736f6c63430008140033",
  "linkReferences": {},
  "deployedLinkReferences": {}
}