{
  "_format": "hh-sol-artifact-1",
  "contractName": "AriaKeyX",
  "sourceName": "contracts/AriaKeyX.sol",
  "abi": [
    {
      "inputs": [
        {
          "internalType": "address",
          "name": "ownerAddress",
          "type": "address"
        }
      ],
      "stateMutability": "nonpayable",
      "type": "constructor"
    },
    {
      "inputs": [
        {
          "internalType": "address",
          "name": "spender",
          "type": "address"
        },
        {
          "internalType": "uint256",
          "name": "allowance",
          "type": "uint256"
        },
        {
          "internalType": "uint256",
          "name": "needed",
          "type": "uint256"
        }
      ],
      "name": "ERC20InsufficientAllowance",
      "type": "error"
    },
    {
      "inputs": [
        {
          "internalType": "address",
          "name": "sender",
          "type": "address"
        },
        {
          "internalType": "uint256",
          "name": "balance",
          "type": "uint256"
        },
        {
          "internalType": "uint256",
          "name": "needed",
          "type": "uint256"
        }
      ],
      "name": "ERC20InsufficientBalance",
      "type": "error"
    },
    {
      "inputs": [
        {
          "internalType": "address",
          "name": "approver",
          "type": "address"
        }
      ],
      "name": "ERC20InvalidApprover",
      "type": "error"
    },
    {
      "inputs": [
        {
          "internalType": "address",
          "name": "receiver",
          "type": "address"
        }
      ],
      "name": "ERC20InvalidReceiver",
      "type": "error"
    },
    {
      "inputs": [
        {
          "internalType": "address",
          "name": "sender",
          "type": "address"
        }
      ],
      "name": "ERC20InvalidSender",
      "type": "error"
    },
    {
      "inputs": [
        {
          "internalType": "address",
          "name": "spender",
          "type": "address"
        }
      ],
      "name": "ERC20InvalidSpender",
      "type": "error"
    },
    {
      "inputs": [],
      "name": "EnforcedPause",
      "type": "error"
    },
    {
      "inputs": [],
      "name": "ExpectedPause",
      "type": "error"
    },
    {
      "inputs": [
        {
          "internalType": "address",
          "name": "owner",
          "type": "address"
        }
      ],
      "name": "OwnableInvalidOwner",
      "type": "error"
    },
    {
      "inputs": [
        {
          "internalType": "address",
          "name": "account",
          "type": "address"
        }
      ],
      "name": "OwnableUnauthorizedAccount",
      "type": "error"
    },
    {
      "anonymous": false,
      "inputs": [
        {
          "indexed": true,
          "internalType": "address",
          "name": "owner",
          "type": "address"
        },
        {
          "indexed": true,
          "internalType": "address",
          "name": "spender",
          "type": "address"
        },
        {
          "indexed": false,
          "internalType": "uint256",
          "name": "value",
          "type": "uint256"
        }
      ],
      "name": "Approval",
      "type": "event"
    },
    {
      "anonymous": false,
      "inputs": [
        {
          "indexed": true,
          "internalType": "address",
          "name": "previousOwner",
          "type": "address"
        },
        {
          "indexed": true,
          "internalType": "address",
          "name": "newOwner",
          "type": "address"
        }
      ],
      "name": "OwnershipTransferred",
      "type": "event"
    },
    {
      "anonymous": false,
      "inputs": [
        {
          "indexed": false,
          "internalType": "address",
          "name": "account",
          "type": "address"
        }
      ],
      "name": "Paused",
      "type": "event"
    },
    {
      "anonymous": false,
      "inputs": [
        {
          "indexed": true,
          "internalType": "address",
          "name": "from",
          "type": "address"
        },
        {
          "indexed": true,
          "internalType": "address",
          "name": "to",
          "type": "address"
        },
        {
          "indexed": false,
          "internalType": "uint256",
          "name": "value",
          "type": "uint256"
        }
      ],
      "name": "Transfer",
      "type": "event"
    },
    {
      "anonymous": false,
      "inputs": [
        {
          "indexed": false,
          "internalType": "address",
          "name": "account",
          "type": "address"
        }
      ],
      "name": "Unpaused",
      "type": "event"
    },
    {
      "inputs": [],
      "name": "INITIAL_SUPPLY",
      "outputs": [
        {
          "internalType": "uint256",
          "name": "",
          "type": "uint256"
        }
      ],
      "stateMutability": "view",
      "type": "function"
    },
    {
      "inputs": [
        {
          "internalType": "address",
          "name": "owner",
          "type": "address"
        },
        {
          "internalType": "address",
          "name": "spender",
          "type": "address"
        }
      ],
      "name": "allowance",
      "outputs": [
        {
          "internalType": "uint256",
          "name": "",
          "type": "uint256"
        }
      ],
      "stateMutability": "view",
      "type": "function"
    },
    {
      "inputs": [
        {
          "internalType": "address",
          "name": "spender",
          "type": "address"
        },
        {
          "internalType": "uint256",
          "name": "value",
          "type": "uint256"
        }
      ],
      "name": "approve",
      "outputs": [
        {
          "internalType": "bool",
          "name": "",
          "type": "bool"
        }
      ],
      "stateMutability": "nonpayable",
      "type": "function"
    },
    {
      "inputs": [
        {
          "internalType": "address",
          "name": "account",
          "type": "address"
        }
      ],
      "name": "balanceOf",
      "outputs": [
        {
          "internalType": "uint256",
          "name": "",
          "type": "uint256"
        }
      ],
      "stateMutability": "view",
      "type": "function"
    },
    {
      "inputs": [],
      "name": "decimals",
      "outputs": [
        {
          "internalType": "uint8",
          "name": "",
          "type": "uint8"
        }
      ],
      "stateMutability": "view",
      "type": "function"
    },
    {
      "inputs": [
        {
          "internalType": "address",
          "name": "to",
          "type": "address"
        },
        {
          "internalType": "uint256",
          "name": "amount",
          "type": "uint256"
        }
      ],
      "name": "mint",
      "outputs": [],
      "stateMutability": "nonpayable",
      "type": "function"
    },
    {
      "inputs": [],
      "name": "name",
      "outputs": [
        {
          "internalType": "string",
          "name": "",
          "type": "string"
        }
      ],
      "stateMutability": "view",
      "type": "function"
    },
    {
      "inputs": [],
      "name": "owner",
      "outputs": [
        {
          "internalType": "address",
          "name": "",
          "type": "address"
        }
      ],
      "stateMutability": "view",
      "type": "function"
    },
    {
      "inputs": [],
      "name": "pause",
      "outputs": [],
      "stateMutability": "nonpayable",
      "type": "function"
    },
    {
      "inputs": [],
      "name": "paused",
      "outputs": [
        {
          "internalType": "bool",
          "name": "",
          "type": "bool"
        }
      ],
      "stateMutability": "view",
      "type": "function"
    },
    {
      "inputs": [],
      "name": "renounceOwnership",
      "outputs": [],
      "stateMutability": "nonpayable",
      "type": "function"
    },
    {
      "inputs": [],
      "name": "symbol",
      "outputs": [
        {
          "internalType": "string",
          "name": "",
          "type": "string"
        }
      ],
      "stateMutability": "view",
      "type": "function"
    },
    {
      "inputs": [],
      "name": "totalSupply",
      "outputs": [
        {
          "internalType": "uint256",
          "name": "",
          "type": "uint256"
        }
      ],
      "stateMutability": "view",
      "type": "function"
    },
    {
      "inputs": [
        {
          "internalType": "address",
          "name": "to",
          "type": "address"
        },
        {
          "internalType": "uint256",
          "name": "value",
          "type": "uint256"
        }
      ],
      "name": "transfer",
      "outputs": [
        {
          "internalType": "bool",
          "name": "",
          "type": "bool"
        }
      ],
      "stateMutability": "nonpayable",
      "type": "function"
    },
    {
      "inputs": [
        {
          "internalType": "address",
          "name": "from",
          "type": "address"
        },
        {
          "internalType": "address",
          "name": "to",
          "type": "address"
        },
        {
          "internalType": "uint256",
          "name": "value",
          "type": "uint256"
        }
      ],
      "name": "transferFrom",
      "outputs": [
        {
          "internalType": "bool",
          "name": "",
          "type": "bool"
        }
      ],
      "stateMutability": "nonpayable",
      "type": "function"
    },
    {
      "inputs": [
        {
          "internalType": "address",
          "name": "newOwner",
          "type": "address"
        }
      ],
      "name": "transferOwnership",
      "outputs": [],
      "stateMutability": "nonpayable",
      "type": "function"
    },
    {
      "inputs": [],
      "name": "unpause",
      "outputs": [],
      "stateMutability": "nonpayable",
      "type": "function"
    }
  ],
  "bytecode": "0x608060405234801562000010575f80fd5b5060405162000eec38038062000eec8339810160408190526200003391620002fc565b8060405180604001604052806009815260200168082a4928240968ab2b60bb1b815250604051806040016040528060048152602001630968ab2b60e31b8152508160039081620000849190620003ca565b506004620000938282620003ca565b5050506001600160a01b038116620000c557604051631e4fbdf760e01b81525f60048201526024015b60405180910390fd5b620000d081620000ef565b50620000e8816a01221bd94bf4e96440000062000140565b50620004b8565b600580546001600160a01b038381166001600160a01b0319831681179093556040519116919082907f8be0079c531659141344cd1fd0a4f28419497f9722a3daafe3b4186f6b6457e0905f90a35050565b6001600160a01b0382166200016b5760405163ec442f0560e01b81525f6004820152602401620000bc565b620001785f83836200017c565b5050565b6200018662000198565b62000193838383620001cd565b505050565b620001ac600554600160a01b900460ff1690565b15620001cb5760405163d93c066560e01b815260040160405180910390fd5b565b6001600160a01b038316620001fb578060025f828254620001ef919062000492565b909155506200026d9050565b6001600160a01b0383165f90815260208190526040902054818110156200024f5760405163391434e360e21b81526001600160a01b03851660048201526024810182905260448101839052606401620000bc565b6001600160a01b0384165f9081526020819052604090209082900390555b6001600160a01b0382166200028b57600280548290039055620002a9565b6001600160a01b0382165f9081526020819052604090208054820190555b816001600160a01b0316836001600160a01b03167fddf252ad1be2c89b69c2b068fc378daa952ba7f163c4a11628f55a4df523b3ef83604051620002ef91815260200190565b60405180910390a3505050565b5f602082840312156200030d575f80fd5b81516001600160a01b038116811462000324575f80fd5b9392505050565b634e487b7160e01b5f52604160045260245ffd5b600181811c908216806200035457607f821691505b6020821081036200037357634e487b7160e01b5f52602260045260245ffd5b50919050565b601f82111562000193575f81815260208120601f850160051c81016020861015620003a15750805b601f850160051c820191505b81811015620003c257828155600101620003ad565b505050505050565b81516001600160401b03811115620003e657620003e66200032b565b620003fe81620003f784546200033f565b8462000379565b602080601f83116001811462000434575f84156200041c5750858301515b5f19600386901b1c1916600185901b178555620003c2565b5f85815260208120601f198616915b82811015620004645788860151825594840194600190910190840162000443565b50858210156200048257878501515f19600388901b60f8161c191681555b5050505050600190811b01905550565b80820180821115620004b257634e487b7160e01b5f52601160045260245ffd5b92915050565b610a2680620004c65f395ff3fe608060405234801561000f575f80fd5b5060043610610106575f3560e01c80635c975abb1161009e5780638da5cb5b1161006e5780638da5cb5b146101f857806395d89b4114610213578063a9059cbb1461021b578063dd62ed3e1461022e578063f2fde38b14610266575f80fd5b80635c975abb146101ae57806370a08231146101c0578063715018a6146101e85780638456cb59146101f0575f80fd5b80632ff2e9dc116100d95780632ff2e9dc14610170578063313ce567146101825780633f4ba83a1461019157806340c10f191461019b575f80fd5b806306fdde031461010a578063095ea7b31461012857806318160ddd1461014b57806323b872dd1461015d575b5f80fd5b610112610279565b60405161011f9190610881565b60405180910390f35b61013b6101363660046108e7565b610309565b604051901515815260200161011f565b6002545b60405190815260200161011f565b61013b61016b36600461090f565b610322565b61014f6a01221bd94bf4e96440000081565b6040516012815260200161011f565b610199610345565b005b6101996101a93660046108e7565b610357565b600554600160a01b900460ff1661013b565b61014f6101ce366004610948565b6001600160a01b03165f9081526020819052604090205490565b61019961036d565b61019961037e565b6005546040516001600160a01b03909116815260200161011f565b61011261038e565b61013b6102293660046108e7565b61039d565b61014f61023c366004610968565b6001600160a01b039182165f90815260016020908152604080832093909416825291909152205490565b610199610274366004610948565b6103aa565b60606003805461028890610999565b80601f01602080910402602001604051908101604052809291908181526020018280546102b490610999565b80156102ff5780601f106102d6576101008083540402835291602001916102ff565b820191905f5260205f20905b8154815290600101906020018083116102e257829003601f168201915b5050505050905090565b5f336103168185856103ec565b60019150505b92915050565b5f3361032f8582856103fe565b61033a85858561047a565b506001949350505050565b61034d6104d7565b610355610504565b565b61035f6104d7565b6103698282610559565b5050565b6103756104d7565b6103555f61058d565b6103866104d7565b6103556105de565b60606004805461028890610999565b5f3361031681858561047a565b6103b26104d7565b6001600160a01b0381166103e057604051631e4fbdf760e01b81525f60048201526024015b60405180910390fd5b6103e98161058d565b50565b6103f98383836001610621565b505050565b6001600160a01b038381165f908152600160209081526040808320938616835292905220545f19811015610474578181101561046657604051637dc7a0d960e11b81526001600160a01b038416600482015260248101829052604481018390526064016103d7565b61047484848484035f610621565b50505050565b6001600160a01b0383166104a357604051634b637e8f60e11b81525f60048201526024016103d7565b6001600160a01b0382166104cc5760405163ec442f0560e01b81525f60048201526024016103d7565b6103f98383836106f3565b6005546001600160a01b031633146103555760405163118cdaa760e01b81523360048201526024016103d7565b61050c610706565b6005805460ff60a01b191690557f5db9ee0a495bf2e6ff9c91a7834c1ba4fdd244a5e8aa4e537bd38aeae4b073aa335b6040516001600160a01b03909116815260200160405180910390a1565b6001600160a01b0382166105825760405163ec442f0560e01b81525f60048201526024016103d7565b6103695f83836106f3565b600580546001600160a01b038381166001600160a01b0319831681179093556040519116919082907f8be0079c531659141344cd1fd0a4f28419497f9722a3daafe3b4186f6b6457e0905f90a35050565b6105e6610730565b6005805460ff60a01b1916600160a01b1790557f62e78cea01bee320cd4e420270b5ea74000d11b0c9f74754ebdbfc544b05a25861053c3390565b6001600160a01b03841661064a5760405163e602df0560e01b81525f60048201526024016103d7565b6001600160a01b03831661067357604051634a1406b160e11b81525f60048201526024016103d7565b6001600160a01b038085165f908152600160209081526040808320938716835292905220829055801561047457826001600160a01b0316846001600160a01b03167f8c5be1e5ebec7d5bd14f71427d1e84f3dd0314c0f7b2291e5b200ac8c7c3b925846040516106e591815260200190565b60405180910390a350505050565b6106fb610730565b6103f983838361075b565b600554600160a01b900460ff1661035557604051638dfc202b60e01b815260040160405180910390fd5b600554600160a01b900460ff16156103555760405163d93c066560e01b815260040160405180910390fd5b6001600160a01b038316610785578060025f82825461077a91906109d1565b909155506107f59050565b6001600160a01b0383165f90815260208190526040902054818110156107d75760405163391434e360e21b81526001600160a01b038516600482015260248101829052604481018390526064016103d7565b6001600160a01b0384165f9081526020819052604090209082900390555b6001600160a01b0382166108115760028054829003905561082f565b6001600160a01b0382165f9081526020819052604090208054820190555b816001600160a01b0316836001600160a01b03167fddf252ad1be2c89b69c2b068fc378daa952ba7f163c4a11628f55a4df523b3ef8360405161087491815260200190565b60405180910390a3505050565b5f6020808352835180828501525f5b818110156108ac57858101830151858201604001528201610890565b505f604082860101526040601f19601f8301168501019250505092915050565b80356001600160a01b03811681146108e2575f80fd5b919050565b5f80604083850312156108f8575f80fd5b610901836108cc565b946020939093013593505050565b5f805f60608486031215610921575f80fd5b61092a846108cc565b9250610938602085016108cc565b9150604084013590509250925092565b5f60208284031215610958575f80fd5b610961826108cc565b9392505050565b5f8060408385031215610979575f80fd5b610982836108cc565b9150610990602084016108cc565b90509250929050565b600181811c908216806109ad57607f821691505b6020821081036109cb57634e487b7160e01b5f52602260045260245ffd5b50919050565b8082018082111561031c57634e487b7160e01b5f52601160045260245ffdfea26469706673582212205a57f0aab08de6d030fd307b9d1abc2e51661b82c7633640785f73dfb165afa764736f6c63430008140033",
  "linkReferences": {},
  "deployedLinkReferences": {}
}